{
  "_format": "hh-sol-artifact-1",
  "contractName": "SubscriptionService",
  "sourceName": "contracts/SubscriptionService.sol",
  "abi": [
    {
      "inputs": [
        {
          "internalType": "uint256",
          "name": "_subscriptionFee",
          "type": "uint256"
        },
        {
          "internalType": "uint256",
          "name": "_intervalInDays",
          "type": "uint256"
        }
      ],
      "stateMutability": "nonpayable",
      "type": "constructor"
    },
    {
      "anonymous": false,
      "inputs": [
        {
          "indexed": false,
          "internalType": "address",
          "name": "subscriber",
          "type": "address"
        }
      ],
      "name": "SubscriptionCancelled",
      "type": "event"
    },
    {
      "anonymous": false,
      "inputs": [
        {
          "indexed": false,
          "internalType": "address",
          "name": "subscriber",
          "type": "address"
        },
        {
          "indexed": false,
          "internalType": "uint256",
          "name": "expiryTimestamp",
          "type": "uint256"
        }
      ],
      "name": "SubscriptionPurchased",
      "type": "event"
    },
    {
      "anonymous": false,
      "inputs": [
        {
          "indexed": false,
          "internalType": "address",
          "name": "subscriber",
          "type": "address"
        },
        {
          "indexed": false,
          "internalType": "uint256",
          "name": "expiryTimestamp",
          "type": "uint256"
        }
      ],
      "name": "SubscriptionRenewed",
      "type": "event"
    },
    {
      "inputs": [],
      "name": "cancelSubscription",
      "outputs": [],
      "stateMutability": "nonpayable",
      "type": "function"
    },
    {
      "inputs": [
        {
          "internalType": "address",
          "name": "subscriber",
          "type": "address"
        }
      ],
      "name": "checkSubscription",
      "outputs": [
        {
          "internalType": "bool",
          "name": "",
          "type": "bool"
        }
      ],
      "stateMutability": "view",
      "type": "function"
    },
    {
      "inputs": [
        {
          "internalType": "address",
          "name": "subscriber",
          "type": "address"
        }
      ],
      "name": "getSubscriptionDetails",
      "outputs": [
        {
          "internalType": "bool",
          "name": "isActive",
          "type": "bool"
        },
        {
          "internalType": "uint256",
          "name": "expiryTimestamp",
          "type": "uint256"
        },
        {
          "internalType": "uint256",
          "name": "remainingTime",
          "type": "uint256"
        }
      ],
      "stateMutability": "view",
      "type": "function"
    },
    {
      "inputs": [],
      "name": "interval",
      "outputs": [
        {
          "internalType": "uint256",
          "name": "",
          "type": "uint256"
        }
      ],
      "stateMutability": "view",
      "type": "function"
    },
    {
      "inputs": [],
      "name": "owner",
      "outputs": [
        {
          "internalType": "address",
          "name": "",
          "type": "address"
        }
      ],
      "stateMutability": "view",
      "type": "function"
    },
    {
      "inputs": [],
      "name": "renewSubscription",
      "outputs": [],
      "stateMutability": "payable",
      "type": "function"
    },
    {
      "inputs": [],
      "name": "subscribe",
      "outputs": [],
      "stateMutability": "payable",
      "type": "function"
    },
    {
      "inputs": [],
      "name": "subscriptionFee",
      "outputs": [
        {
          "internalType": "uint256",
          "name": "",
          "type": "uint256"
        }
      ],
      "stateMutability": "view",
      "type": "function"
    },
    {
      "inputs": [
        {
          "internalType": "address",
          "name": "",
          "type": "address"
        }
      ],
      "name": "subscriptions",
      "outputs": [
        {
          "internalType": "uint256",
          "name": "expiryTimestamp",
          "type": "uint256"
        },
        {
          "internalType": "bool",
          "name": "isActive",
          "type": "bool"
        }
      ],
      "stateMutability": "view",
      "type": "function"
    },
    {
      "inputs": [],
      "name": "totalSubscribers",
      "outputs": [
        {
          "internalType": "uint256",
          "name": "",
          "type": "uint256"
        }
      ],
      "stateMutability": "view",
      "type": "function"
    },
    {
      "stateMutability": "payable",
      "type": "receive"
    }
  ],
  "bytecode": "0x60806040523480156200001157600080fd5b5060405162000e5b38038062000e5b8339818101604052810190620000379190620000dd565b336000806101000a81548173ffffffffffffffffffffffffffffffffffffffff021916908373ffffffffffffffffffffffffffffffffffffffff1602179055508160018190555062015180816200008f919062000153565b60028190555050506200019e565b600080fd5b6000819050919050565b620000b781620000a2565b8114620000c357600080fd5b50565b600081519050620000d781620000ac565b92915050565b60008060408385031215620000f757620000f66200009d565b5b60006200010785828601620000c6565b92505060206200011a85828601620000c6565b9150509250929050565b7f4e487b7100000000000000000000000000000000000000000000000000000000600052601160045260246000fd5b60006200016082620000a2565b91506200016d83620000a2565b92508282026200017d81620000a2565b9150828204841483151762000197576200019662000124565b5b5092915050565b610cad80620001ae6000396000f3fe6080604052600436106100955760003560e01c80638da5cb5b116100595780638da5cb5b146101555780638f449a0514610180578063947a36fb1461018a578063d474f84f146101b5578063f046395a146101f45761009c565b80630aa0a175146100a157806315e2475f146100cc57806324e9edb0146100f75780634f62647e1461010e5780636e3079811461014b5761009c565b3661009c57005b600080fd5b3480156100ad57600080fd5b506100b6610232565b6040516100c39190610886565b60405180910390f35b3480156100d857600080fd5b506100e1610238565b6040516100ee9190610886565b60405180910390f35b34801561010357600080fd5b5061010c61023e565b005b34801561011a57600080fd5b5061013560048036038101906101309190610904565b610379565b604051610142919061094c565b60405180910390f35b610153610420565b005b34801561016157600080fd5b5061016a610590565b6040516101779190610976565b60405180910390f35b6101886105b4565b005b34801561019657600080fd5b5061019f61077a565b6040516101ac9190610886565b60405180910390f35b3480156101c157600080fd5b506101dc60048036038101906101d79190610904565b610780565b6040516101eb93929190610991565b60405180910390f35b34801561020057600080fd5b5061021b60048036038101906102169190610904565b61083c565b6040516102299291906109c8565b60405180910390f35b60015481565b60045481565b600360003373ffffffffffffffffffffffffffffffffffffffff1673ffffffffffffffffffffffffffffffffffffffff16815260200190815260200160002060010160009054906101000a900460ff166102cd576040517f08c379a00000000000000000000000000000000000000000000000000000000081526004016102c490610a4e565b60405180910390fd5b6000600360003373ffffffffffffffffffffffffffffffffffffffff1673ffffffffffffffffffffffffffffffffffffffff16815260200190815260200160002060010160006101000a81548160ff0219169083151502179055506004600081548092919061033b90610a9d565b91905055507f71215198e3f86c24dc3af6d0d7f84d0095e5ee736aa56daf9927fae51935e95d3360405161036f9190610976565b60405180910390a1565b6000600360008373ffffffffffffffffffffffffffffffffffffffff1673ffffffffffffffffffffffffffffffffffffffff16815260200190815260200160002060010160009054906101000a900460ff1680156104195750600360008373ffffffffffffffffffffffffffffffffffffffff1673ffffffffffffffffffffffffffffffffffffffff168152602001908152602001600020600001544211155b9050919050565b600154341015610465576040517f08c379a000000000000000000000000000000000000000000000000000000000815260040161045c90610b12565b60405180910390fd5b600360003373ffffffffffffffffffffffffffffffffffffffff1673ffffffffffffffffffffffffffffffffffffffff16815260200190815260200160002060010160009054906101000a900460ff166104f4576040517f08c379a00000000000000000000000000000000000000000000000000000000081526004016104eb90610a4e565b60405180910390fd5b600254426105029190610b32565b600360003373ffffffffffffffffffffffffffffffffffffffff1673ffffffffffffffffffffffffffffffffffffffff168152602001908152602001600020600001819055507f0e3bc79b6527253ae333c773455df588f62bcc1ad9726d42dbdc179356232a6033600254426105789190610b32565b604051610586929190610b66565b60405180910390a1565b60008054906101000a900473ffffffffffffffffffffffffffffffffffffffff1681565b6001543410156105f9576040517f08c379a00000000000000000000000000000000000000000000000000000000081526004016105f090610b12565b60405180910390fd5b600360003373ffffffffffffffffffffffffffffffffffffffff1673ffffffffffffffffffffffffffffffffffffffff16815260200190815260200160002060010160009054906101000a900460ff1615610689576040517f08c379a000000000000000000000000000000000000000000000000000000000815260040161068090610bdb565b60405180910390fd5b6040518060400160405280600254426106a29190610b32565b815260200160011515815250600360003373ffffffffffffffffffffffffffffffffffffffff1673ffffffffffffffffffffffffffffffffffffffff1681526020019081526020016000206000820151816000015560208201518160010160006101000a81548160ff0219169083151502179055509050506004600081548092919061072d90610bfb565b91905055507f799bcc5d05a0d37fc0012dba6e154d1353b3b36495bf076daf88f7b1428a3f8133600254426107629190610b32565b604051610770929190610b66565b60405180910390a1565b60025481565b600080600080600360008673ffffffffffffffffffffffffffffffffffffffff1673ffffffffffffffffffffffffffffffffffffffff168152602001908152602001600020604051806040016040529081600082015481526020016001820160009054906101000a900460ff16151515158152505090508060200151801561080c575080600001514211155b93508060000151925083610821576000610832565b4281600001516108319190610c43565b5b9150509193909250565b60036020528060005260406000206000915090508060000154908060010160009054906101000a900460ff16905082565b6000819050919050565b6108808161086d565b82525050565b600060208201905061089b6000830184610877565b92915050565b600080fd5b600073ffffffffffffffffffffffffffffffffffffffff82169050919050565b60006108d1826108a6565b9050919050565b6108e1816108c6565b81146108ec57600080fd5b50565b6000813590506108fe816108d8565b92915050565b60006020828403121561091a576109196108a1565b5b6000610928848285016108ef565b91505092915050565b60008115159050919050565b61094681610931565b82525050565b6000602082019050610961600083018461093d565b92915050565b610970816108c6565b82525050565b600060208201905061098b6000830184610967565b92915050565b60006060820190506109a6600083018661093d565b6109b36020830185610877565b6109c06040830184610877565b949350505050565b60006040820190506109dd6000830185610877565b6109ea602083018461093d565b9392505050565b600082825260208201905092915050565b7f4e6f2061637469766520737562736372697074696f6e00000000000000000000600082015250565b6000610a386016836109f1565b9150610a4382610a02565b602082019050919050565b60006020820190508181036000830152610a6781610a2b565b9050919050565b7f4e487b7100000000000000000000000000000000000000000000000000000000600052601160045260246000fd5b6000610aa88261086d565b915060008203610abb57610aba610a6e565b5b600182039050919050565b7f496e73756666696369656e74207061796d656e74000000000000000000000000600082015250565b6000610afc6014836109f1565b9150610b0782610ac6565b602082019050919050565b60006020820190508181036000830152610b2b81610aef565b9050919050565b6000610b3d8261086d565b9150610b488361086d565b9250828201905080821115610b6057610b5f610a6e565b5b92915050565b6000604082019050610b7b6000830185610967565b610b886020830184610877565b9392505050565b7f537562736372697074696f6e20616c7265616479206163746976650000000000600082015250565b6000610bc5601b836109f1565b9150610bd082610b8f565b602082019050919050565b60006020820190508181036000830152610bf481610bb8565b9050919050565b6000610c068261086d565b91507fffffffffffffffffffffffffffffffffffffffffffffffffffffffffffffffff8203610c3857610c37610a6e565b5b600182019050919050565b6000610c4e8261086d565b9150610c598361086d565b9250828203905081811115610c7157610c70610a6e565b5b9291505056fea2646970667358221220e4b216593876cee956bdd6d77a3f554cac6698720a1a7f4cab3e48e02a5e2c6c64736f6c63430008130033",
  "linkReferences": {},
  "deployedLinkReferences": {}
}